:020000040000FA
:10000000E00700206D020000710200007302000092
:100010007502000077020000790200000000000075
:100020000000000000000000000000007B02000053
:100030007D020000000000007F020000810200003D
:10004000830200008302000083020000830200009C
:100050008302000005040000830200008302000008
:10006000830200008302000083020000830200007C
:10007000830200008302000083020000830200006C
:10008000830200008302000083020000830200005C
:10009000830200008302000083020000830200004C
:1000A000830200008302000083020000830200003C
:1000B000830200008302000083020000830200002C
:1000C000830200008302000083020000830200001C
:1000D000830200008302000083020000830200000C
:1000E00083020000830200008302000083020000FC
:1000F00083020000830200008302000083020000EC
:1001000083020000830200008302000083020000DB
:1001100083020000830200008302000083020000CB
:1001200083020000830200008302000083020000BB
:1001300083020000830200008302000083020000AB
:1001400000000000000000000000000000000000AF
:10015000830200008302000083020000830200008B
:10016000000000000000000000000000000000008F
:10017000000000000000000000000000000000007F
:10018000000000000000000000000000000000006F
:10019000000000000000000000000000000000005F
:1001A000000000000000000000000000000000004F
:1001B000830200008302000083020000830200002B
:1001C000830200008302000083020000830200001B
:1001D000830200008302000083020000830200000B
:1001E00083020000830200008302000083020000FB
:1001F00083020000830200008302000083020000EB
:10020000830200008302000083020000000000005F
:1002100083020000830200008302000083020000CA
:1002200083020000830200008302000083020000BA
:1002300083020000830200008302000083020000AA
:10024000830200008302000083020000830200009A
:10025000830200008302000083020000830200008A
:1002600083020000830200008302000000F00AB84D
:10027000FEE7FEE7FEE7FEE7FEE7FEE7FEE7FEE756
:10028000FEE7FEE7DFF80CD000F014F80048004766
:1002900035070000E007002072B6704762B670476D
:1002A000EFF3108072B6704780F31088704730BF4C
:1002B00070470000064C074D06E0E06840F001037F
:1002C00094E8070098471034AC42F6D3FFF7DEFFFE
:1002D000780800009808000010B5FFF7E1FF044619
:1002E000002004490860044908602046FFF7DCFF4D
:1002F00010BD0000040000200000002001460B4853
:1003000000680B4A1268801A20F00F0008B1002024
:1003100070470648006800F00F00064A1154034871
:100320000068401C014A10600120F1E70000002035
:1003300004000020280000200348006803490968E1
:10034000401A80B270470000000000200400002026
:1003500001460B4800680B4A1268904201D1002008
:1003600070470848006800F00F00074A105C0870EA
:1003700004480068401C034A10600120F0E70000B8
:10038000080000200C0000203800002010B5FFF706
:1003900087FF04460020044908600449086020469D
:1003A000FFF782FF10BD00000C00002008000020B5
:1003B00001460B4800680B4A1268801A20F00F00B3
:1003C00008B1002070470648006800F00F00064A98
:1003D000115403480068401C014A10600120F1E7F5
:1003E000080000200C0000203800002003480068AE
:1003F00003490968401A80B27047000008000020D5
:100400000C00002010B51448C06B00F0200068B14B
:1004100020201149486400F005F9FFF7E7FF28B9EB
:100420000D48806B20F020000B4988630A48C06BA0
:1004300000F0100020B110200749486400F0DEF8F9
:100440000548C06B00F0400020B1402002494864DC
:1004500000F0D4F810BD000000C0004000BF054906
:10046000896901F010010029F9D10249096848B2EF
:10047000704700000010014010B500BF06488069B9
:1004800000F010000028F9D10348006844B220466B
:1004900000F08AF8204610BD0030014000BF04493A
:1004A000896901F020010029F9D1014908607047EC
:1004B0000030014010B5044608E094F90000FFF751
:1004C000EDFF94F9000000F06FF8641C207800281C
:1004D000F3D10A2000F068F810BD000010B52B48D9
:1004E000006840F001002A49C1F804010846D0F82C
:1004F000080140F00100C1F80801FFF7EDFEFFF729
:1005000045FF2448006B20F00100224908630820C1
:1005100048622C2088627020C8620846406B20F038
:100520003F0048630846406B48630846806B40F0D4
:10053000700088630846006B40F0010008631648AD
:10054000006840F00300144908601348FC3000685C
:1005500040F003001049FC3108601048006820F0AA
:10056000FF0011300D4908600020091F08600C4889
:10057000006820F47F4040F4804009490860202052
:1005800008490860FFF78AFE10BD000004E10F4033
:1005900000E00F4000C00040204400402C450040D7
:1005A00004E400E000E100E010B5044600BF60B2E2
:1005B000FFF7FEFE0028FAD00748806B20F02000ED
:1005C0000549886300F02EF80348806B40F0200056
:1005D0000149886310BD000000C0004002E008C867
:1005E000121F08C1002AFAD170477047002001E0AD
:1005F00001C1121F002AFBD17047000000B505E0C1
:100600000748006843B21846FFF778FE044880693F
:1006100000F0100018B9FFF78FFE0F28F0DB00BDC7
:1006200000C0004008B506E06846FFF791FE9DF95E
:100630000000064908600548806900F0200018B9EC
:10064000FFF7D4FE0028EFDC08BD000000C000402A
:10065000002106E0002200E0521CB2F5FA6FFBDB3D
:10066000491C8142F6DB704710B500202E49086016
:1006700012E00120FFF7ECFFFFF7F0FE04462A48E6
:1006800001680068401C284A1060284844541046FD
:100690000068401C114608602348006840F226218B
:1006A0008842E6D300202049086036E000201E4939
:1006B000086028E01D481C49096841561C481A4A30
:1006C00012688056814219D00120174908600AE05B
:1006D0001649154A12688856FFF766FF12480068E7
:1006E000401C1149086010480068C828F0D30A204F
:1006F000FFF75AFF41F28830FFF7AAFF0A48006867
:10070000401C0949086008480068B0F5167FD1D33D
:1007100005480068401C0449086003480068B0F5BB
:10072000167FC3D310BD0000100000204800002039
:100730002000002070B54048006840F0FF003E49AE
:1007400008603D481038006840F0FF003A49103911
:100750000860002039490863682048620B208862DD
:1007600000203749086060203449C86240F20130F7
:100770000863002033490863682048620B208862C0
:1007800000203149086060202E49C86240F20130E3
:10079000086333202D49086000202C490C31086083
:1007A00033202A49FC3908604FF0111027491031D5
:1007B0000860FFF793FE0A20FFF7F6FEFFF754FFED
:1007C000002400BF1EE02248FFF742FF21A0FFF7F0
:1007D00071FE002406E00120FFF73AFFFFF74CFE10
:1007E0000546641C362CF6DB0A20FFF7DDFE2046AA
:1007F000FFF7DAFE0A20FFF7D7FE4FF47A70FFF713
:1008000027FF641C0A2CDEDB17A0FFF753FE002431
:1008100006E00120FFF71CFFFFF72EFE0546641CD3
:10082000172CF6DB0A20FFF7BFFE4FF47A70FFF7B4
:100830000FFF002070BD000018E60F4000100140BF
:10084000C81F014000300140C83F01401C45024024
:100850007011010041542B48545450524541443DBD
:10086000302C32300D0A000041542B48545450545F
:1008700045524D0D0A0000009808000000000020BD
:1008800028000000DC050000C0080000280000204F
:10089000B8070000EC0500000000000000000000A8
:1008A0000000000000000000000000000000000048
:1008B0000000000000000000244750524D4300009B
:040000050000026D88
:00000001FF
